:020000040800F2
:100000000000022019330008D9010008DD010008B2
:10001000E1010008E5010008E90100080000000016
:10002000000000000000000000000000ED010008DA
:10003000F101000800000000F5010008C1290008D6
:100040006533000865330008653300086533000830
:1000500065330008653300082B2A0008372A00089A
:1000600065330008653300081F2A0008653300085F
:100070006533000865330008653300086533000800
:100080006533000865330008653300080000000090
:1000900000000000000000000000000065330008C0
:1000A00065330008653300086533000865330008D0
:1000B000653300086533000865330008F12900083E
:1000C000012A00086533000865330008432A000848
:1000D0006533000865330008E129000800000000CE
:1000E000112A00086533000865330008000000008D
:1000F0000000000000000000000000006533000860
:100100000000000065330008CF29000865330008AF
:1001100000000000000000000000000000000000DF
:10012000653300086533000865330008653300084F
:10013000653300080000000000000000000000001F
:10014000000000000000000000000000653300080F
:10015000653300086533000865330008653300081F
:10016000653300086533000800000000000000004F
:10017000000000000000000000000000000000007F
:1001800000000000653300080000000000000000CF
:08019000653300086533000827
:1001980010B5054C237833B9044B13B10448AFF3B9
:1001A80000800123237010BDC8000020000000005B
:1001B800B033000808B5034B1BB103490348AFF33C
:1001C800008008BD00000000CC000020B03300080B
:1001D80000BF704700BFFDE700BFFDE700BFFDE7B8
:1001E80000BFFDE700BF704700BF704700BF704702
:1001F80008B5184BD3F88830164A43F47003C2F890
:100208008830154B1B68144A43F001031360124BE6
:1002180000229A60104B1B680F4A23F0847323F462
:10022800803313600C4B0D4A5A600B4B1B680A4A0B
:1002380023F480231360084B0022DA600849022067
:1002480000F094F9034B4FF000629A6000F00AF84E
:1002580000BF08BD00ED00E0003802401030002467
:10026800E400002086B000230493002305930223B2
:1002780003930023029302230193334B9B6803F0FB
:100288000C030493049B082B11D0049B082B44D81F
:10029800049B002B03D0049B042B04D03DE02B4B84
:1002A8002B4A1A603DE0294B2A4A1A6039E0264B4E
:1002B8005B689B0D03F001030293234B5B6803F01B
:1002C8003F030193029B002B0CD0224A019BB2FBF7
:1002D800F3F31D4A52689209C2F3080202FB03F3C2
:1002E80005930BE01A4A019BB2FBF3F3164A5268D6
:1002F8009209C2F3080202FB03F30593124B5B68F1
:100308001B0C03F0030301335B000393059A039B63
:10031800B2FBF3F30D4A136003E00C4B0C4A1A606E
:1003280000BF094B9B681B0903F00F030A4AD35C03
:100338000493064B1A68049B22FA03F3034A1360DA
:1003480000BF06B0704700BF003802400000002020
:100358000024F40000127A000035000882B0034639
:100368008DF807309DF80730052B00F2928001A226
:1003780052F823F095030008BD030008E5030008C0
:100388000D040008350400085D040008424B1B6892
:1003980003F00103002B71D13F4B1B683E4A43F029
:1003A8000103136000BF3C4B1B6803F00203002BE2
:1003B800F9D063E0384B1B6803F48033002B5FD11E
:1003C800354B1B68344A43F45023136000BF324B4B
:1003D8001B6803F40033002BF9D051E02E4B1B6847
:1003E80003F08073002B4DD12B4B1B682A4A43F036
:1003F8008073136000BF284B1B6803F00073002B49
:10040800F9D03FE0244B1B6803F08063002B3BD1FD
:10041800214B1B68204A43F08063136000BF1E4BCA
:100428001B6803F00063002BF9D02DE01A4B5B6FBB
:1004380003F00103002B29D1174B5B6F164A43F0D9
:100448000103536700BF144B5B6F03F00203002BDB
:10045800F9D01BE0104B1B6F03F00103002B17D1E1
:100468000D4B1B6F0C4A43F00103136700BF0A4B87
:100478001B6F03F00203002BF9D009E000BF08E06E
:1004880000BF06E000BF04E000BF02E000BF00E0DC
:1004980000BF00BF02B070470038024082B0034678
:1004A8008DF807309DF80730052B39D801A252F88E
:1004B80023F000BFD5040008E3040008F104000895
:1004C800FF0400080D0500081B050008164B1B68F3
:1004D800154A23F00103136022E0134B1B68124AEC
:1004E80023F4502313601BE00F4B1B680E4A23F0C4
:1004F8008073136014E00C4B1B680B4A23F0806375
:1005080013600DE0084B5B6F074A23F00103536744
:1005180006E0054B1B6F044A23F00103136700BF75
:1005280000BF02B0704700BF0038024082B00346E7
:100538008DF807300C4B9B6823F003029DF80730B9
:1005480003F00303084913438B6000BF064B9B6805
:100558009B0803F003029DF807309A42F6D100BFCA
:1005680000BF02B0704700BF0038024000B585B038
:1005780001900091019B072B08D8019A1346DB00D4
:100588009B1A9B006A4A1344039301E0694B039347
:10059800039B1B78012B0CD10120FFF7DFFE012004
:1005A800FFF7C4FF0220FFF779FF0020FFF776FF6F
:1005B80095E0039B1B78022B40F085805E4B1B6CFB
:1005C8005D4A43F080531364039B5B78012B09D188
:1005D8000120FFF7C3FE584B5B68574A43F480037A
:1005E800536008E00020FFF7B9FE534B5B68524A9E
:1005F80023F480035360514B1B6823F04052039B44
:10060800DB7A1B074D4913430B604B4B9B6823F464
:100618007C4323F0F003039A127A1201D2B21A43F0
:10062800039B5B7A9B0203F4E0531A43039B9B7A78
:100638005B039BB2404913438B603F4B5A68404B66
:100648001340039A127902F03F021A43039B5B8816
:10065800990147F6C0730B401A43039B5B795B080B
:10066800DBB2013B1B0403F440331A43039B9B7921
:100678001B0603F07C53304913434B600220FFF7FD
:100688006DFE304B1B6823F00F02039BDB6803F001
:100698000F0313432B4A43F4E06313600220FFF770
:1006A80045FF039B5B78012B09D1234B1B6803F0A3
:1006B8000103002B03D00020FFF7F0FE0FE001201C
:1006C800FFF7ECFE0BE00020FFF748FE0020FFF7E5
:1006D8002DFF0220FFF7E2FE0120FFF7DFFE039B5C
:1006E8001A69009B1A60039B5A69009B5A60039B16
:1006F8005B7A002B02D1039B5B6902E0039B5B6979
:100708005B00009A9360039B9A69009BDA60039BE5
:100718009B7A002B02D1039B9B6902E0039B9B6998
:100728005B00009A136100BF05B05DF804FB00BFD1
:1007380004000020740000200038024000700040CF
:100748000080FCF0003C024010B487B00190019B8F
:100758001B680593059B5B690493714B1B68013308
:100768006F4A1360049B03F00103002B09D0019B1F
:100778009B6A5B00019A92F830201A43059B1A6124
:10078800C9E0049B03F00203002B3FD0019B93F8C0
:100798003030002B1CD1059B9B690393019BDA6ABF
:1007A800019BDB6B581C0199C86313441B781A46DC
:1007B800059B1A61019BDA6B019B9B6B9A4240F087
:1007C800AA80059B5B6823F48062059B5A60A2E0BF
:1007D800019B93F83030012B40F09D80019B5B6BAF
:1007E800012B09D1059B1B6823F48062059B1A60C5
:1007F800059B9B6903938EE0059B1B6843F480620D
:10080800059B1A60059B9B69039384E0049B03F096
:100818008003002B51D0019BDA6B019B9B6B9A42A2
:1008280018D2019BDA6A019BDB6B581C0199C863DB
:1008380013441B781A46059B1A61019BDA6B019BCE
:100848009B6B9A4267D1059B5B6823F48062059B8A
:100858005A6060E0019BDA6B019B9B6B9A425AD10C
:10086800049B03F00403002B55D0019B5B6B002B0A
:1008780013D0019B012283F83020019B00221A64C7
:10088800059B5B6843F48062059B5A60059B1B6867
:1008980043F4A062059B1A603DE0059B1B6843F486
:1008A8000072059B1A60059B5B6823F40072059B28
:1008B8005A60019B00225A622DE0049B03F040031A
:1008C800002B28D0059B1C69019BDA6A019B1B6CD5
:1008D800581C019908641344E2B21A70019B1A6CFF
:1008E800019B5B6B013B9A4206D1059B1B6823F475
:1008F8008062059B1A600EE0019B1A6C019B5B6B82
:100908009A4208D1059B1B6843F40072059B1A6044
:10091800019B00225A6200BF07B05DF8044B704784
:10092800F800002084B00190019B1B680393039B8F
:100938005B690293029B03F48073002B0AD0039B2C
:100948005B6923F48072039B5A61019B4FF0FF326D
:100958005A6229E0029B03F40073002B0AD0039B20
:100968005B6923F40072039B5A61019B6FF00502D7
:100978005A6219E0029B03F48063002B0AD0039BA0
:100988005B6923F48062039B5A61019B6FF0070245
:100998005A6209E0039B5B6923F45F42039B5A6137
:1009A800019B4FF0FF325A62039B1B6843F40072AD
:1009B800039B1A6000BF04B0704782B00190019B8E
:1009C8001B681A68019B1B6842F400421A60019B6D
:1009D8001B6800221A60224B5A68019B1B68214938
:1009E800A1FB0212920C5A60019B5B68002B02D19A
:1009F800019B1D4A5A601A4B5968019B5A68134655
:100A08005B001344B1FBF3F2019B1B6842F4004204
:100A1800DA61134B5B68134AA2FB03239B0C4FF468
:100A2800967202FB03F3114AA2FB03239A09019B66
:100A38001B6801321A62019B1B685A6A019B1B687A
:100A480022F01F025A62019B1B681A68019B1B68EF
:100A580042F001021A600023184602B0704700BF36
:100A6800E400002083DE1B43801A0600D34D621089
:100A780086B0039001921A460B46ADF80A30134629
:100A8800ADF80830039B01225A62BDF80A20039B87
:100A98009A62039B019ADA62039B00225A63BDF8AB
:100AA8000820039B9A63039B0022DA63039B0022BE
:100AB8001A64039B002283F83020039B1B685A6842
:100AC800039B1B6842F4E0625A60039B1B681A6828
:100AD800039B1B6842F480721A6000BF039B5B6A29
:100AE800012BFBD00023059303E000BF059B0133D6
:100AF8000593059B632BF8DD039B5B6A184606B0DC
:100B0800704786B0039001921A460B46ADF80A303A
:100B18001346ADF80830039B01225A62BDF80A203B
:100B2800039B9A62039B019ADA62BDF80820039B33
:100B38005A63039B00229A63039B0022DA63039B98
:100B480000221A64039B012283F83020039B1B6850
:100B58005A68039B1B6842F4E0625A60039B1B6857
:100B68001A68039B1B6842F480721A6000BF039BDB
:100B78005B6A012BFBD00023059303E000BF059BB4
:100B880001330593059B632BF8DD039B5B6A1846CD
:100B980006B0704786B00390019200930B46ADF8FB
:100BA8000A30039B01225A62BDF80A20039B9A620D
:100BB800039B019ADA62039B069A5A63039B009A85
:100BC8009A63039B0022DA63039B00221A64039B47
:100BD800002283F83020039B1B685A68039B1B681C
:100BE80042F4E0625A60039B1B681A68039B1B6807
:100BF80042F480721A6000BF039B5B6A012BFBD032
:100C08000023059303E000BF059B01330593059B73
:100C1800632BF8DD039B5B6A184606B0704700BF7C
:100C280088B0039002910192039B0693029B019A5C
:100C3800B3FBF2F2019901FB02F29A1A039B591CC9
:100C480003911D498A5C1A70029A019BB2FBF3F367
:100C58000293029B002BE9D1039B00221A70039A8E
:100C6800069BD31A0593002307931CE0069A079B5B
:100C780013441B788DF81330059A079BD31A013B50
:100C8800069A1A440699079B0B4412781A70059A1B
:100C9800079BD31A013B069A13449DF813201A7038
:100CA800079B01330793059B5B08079A9A42DDD39C
:100CB80000BF00BF08B07047AC00002086B00190AC
:100CC800009100230593019B5A1C01921B788DF813
:100CD8000F3038E09DF80F302F2B08D99DF80F30D2
:100CE800392B04D89DF80F30303B04931EE0009B4D
:100CF800102B0CD19DF80F30402B08D99DF80F30E0
:100D0800462B04D89DF80F30373B04930EE0009B28
:100D1800102B1CD19DF80F30602B18D99DF80F307F
:100D2800662B14D89DF80F30573B0493009B059A07
:100D380002FB03F3049A13440593019B5A1C019286
:100D48001B788DF80F309DF80F30002BC2D1059B12
:100D5800184606B0704786B00190009100230593AD
:100D6800009B013B049318E0059B019A13441B78F0
:100D78000393049B019A1A44059B01990B4412782A
:100D88001A70049B019A1344039AD2B21A70059BF5
:100D980001330593049B013B0493059A049B9A42F3
:100DA800E2DB00BF00BF06B0704700B587B0039014
:100DB80002910192002305931DE0039A1D4B83FBCA
:100DC80002139910D317C91A0B469B000B445B00FA
:100DD800D11ACAB2059B591C05911946029B0B44AE
:100DE8003032D2B21A70039B124A82FB031292105D
:100DF800DB17D31A0393039B002BDED107E0059B77
:100E08005A1C05921A46029B134430221A70059AFE
:100E1800019B9A42F3DB05990298FFF79CFF059B1B
:100E2800029A134400221A70059B184607B05DF811
:100E380004FB00BF6766666600B589B003908DED58
:100E4800020A0191DDED027AFDEEE77A17EE903A9B
:100E58000793079B07EE903AF8EEE77A9DED027A42
:100E680077EE677ACDED067A002203990798FFF7A7
:100E78009CFF0590019B002B25D0059B039A1344EA
:100E88002E221A7001989FED120B00F025F853ECF2
:100E9800102B1046194602F0EBF907EE100ADDEDAB
:100EA800067A67EE877ACDED067ADDED067AFDEEF5
:100EB800E77A059B0133039A1344019A194617EE02
:100EC800900AFFF772FF00BF09B05DF804FB00BF8E
:100ED800000000000000244000B589B08DED020B31
:100EE8000190019B002BB8BF5B4207934FF00002B3
:100EF8001D4BCDE904231BE0079B03F00103002BE6
:100F080009D0DDE90223DDE9040101F09FFF024673
:100F18000B46CDE90423079B5B080793DDE9022311
:100F2800DDE9020101F092FF02460B46CDE90223FA
:100F3800079B002BE0D1019B002B09DADDE9042394
:100F48004FF00000084902F0ABF802460B4601E0FA
:100F5800DDE9042343EC172BB0EE470AF0EE670AED
:100F680009B05DF804FB00BF0000F03F08B503209E
:100F780000F0CAFA0F2000F00FF801F0EDFB002393
:100F8800184608BD08B500F005F80023184608BD46
:100F980000BF704700BF704700B583B00190134B86
:100FA8001A68134B1B7819464FF47A73B3FBF1F3A5
:100FB800B2FBF3F3184600F0EEFA0346002B01D01B
:100FC80001230EE0019B0F2B0AD8002201994FF054
:100FD800FF3000F0A3FA074A019B1360002300E0EA
:100FE8000123184603B05DF804FB00BF0000002091
:100FF800C4000020C0000020044B1B781A46044B94
:101008001B681344024A136000BF7047C4000020E5
:10101800FC000020014B1B6818467047FC000020AC
:10102800014B1B6818467047C000002000B585B00A
:1010380003468DF8073000238DF80F300B4B1B78D3
:101048009DF807209A420BD0084A9DF80730137084
:10105800074B1B681846FFF79FFF03468DF80F30B4
:101068009DF80F30184605B05DF804FBC400002059
:10107800C0000020014B1B7818467047C4000020B0
:1010880000B585B00190FFF7C5FF0290019B03935F
:10109800039BB3F1FF3F05D0094B1B781A46039B0E
:1010A8001344039300BFFFF7B5FF0246029BD31A10
:1010B800039A9A42F7D800BF00BF05B05DF804FB59
:1010C800C4000020034B1B68024A23F0020313608C
:1010D80000BF704710E000E0034B1B68024A43F072
:1010E8000203136000BF704710E000E0014B184690
:1010F800704700BF00050701024B1B681B0C184610
:10110800704700BF002004E0024B1B68C3F30B03C9
:1011180018467047002004E0034B5B68024A43F01E
:101128000103536000BF7047002004E0034B5B6875
:10113800024A23F00103536000BF7047002004E017
:10114800034B5B68024A43F00203536000BF7047D9
:10115800002004E0034B5B68024A23F0020353605B
:1011680000BF7047002004E0034B5B68024A43F06D
:101178000403536000BF7047002004E0034B5B6822
:10118800024A23F00403536000BF7047002004E0C4
:10119800024B01221A6000BF704700BF00042742BB
:1011A800024B00221A6000BF704700BF00042742AC
:1011B800014B1B6818467047107AFF1F014B1B68CC
:1011C80018467047147AFF1F014B1B681846704772
:1011D800187AFF1F84B00190019B03F00703039363
:1011E8000B4BDB680293029A4FF6FF0313400293FE
:1011F800039B1A02029B134343F0BF6343F400337B
:101208000293034A029BD36000BF04B0704700BF3B
:1012180000ED00E0034BDB681B0A03F007031846E8
:10122800704700BF00ED00E082B003468DF807303C
:101238009DF8073003F01F0205499DF907305B0947
:10124800012000FA02F241F8232000BF02B07047E3
:1012580000E100E082B003468DF807309DF80730C2
:1012680003F01F0206499DF907305B09012000FAC7
:1012780002F2203341F8232000BF02B0704700BFBC
:1012880000E100E082B003468DF80730084A9DF976
:1012980007305B09403352F823209DF8073003F0EC
:1012A8001F0322FA03F303F00103184602B0704744
:1012B80000E100E082B003468DF807309DF8073062
:1012C80003F01F0206499DF907305B09012000FA67
:1012D80002F2403341F8232000BF02B0704700BF3C
:1012E80000E100E082B003468DF807309DF8073032
:1012F80003F01F0206499DF907305B09012000FA37
:1013080002F2603341F8232000BF02B0704700BFEB
:1013180000E100E082B003468DF80730084A9DF9E5
:1013280007305B09803352F823209DF8073003F01B
:101338001F0322FA03F303F00103184602B07047B3
:1013480000E100E082B0034600918DF807309DF976
:101358000730002B0CDA009BDAB20C499DF80730F5
:1013680003F00F03043B1201D2B20B441A7609E0D2
:10137800009BDAB206499DF907301201D2B20B443C
:1013880083F8002300BF02B0704700BF00ED00E003
:1013980000E100E082B003468DF807309DF9073080
:1013A800002B0BDA0B4A9DF8073003F00F03043BC0
:1013B80013441B7EDBB21B09DBB208E0064A9DF929
:1013C8000730134493F80033DBB21B09DBB218462D
:1013D80002B0704700ED00E000E100E088B0039043
:1013E80002910192039B03F007030793079BC3F144
:1013F8000703042B28BF04230693079B0433062BFB
:1014080002D9079B033B00E0002305934FF0FF320E
:10141800069B02FA03F3DA43029B1A40059B9A40A3
:101428004FF0FF31059B01FA03F3D943019B0B40B1
:101438001343184608B0704788B003900291019290
:101448000093029B03F007030793079BC3F107036D
:10145800042B28BF04230693079B0433062B02D9C9
:10146800079B033B00E000230593039A059BDA40A2
:101478004FF0FF31069B01FA03F3DB431A40019B4F
:101488001A604FF0FF32059B02FA03F3DA43039B1D
:101498001A40009B1A6000BF08B07047BFF34F8F17
:1014A80000BF074BDB6803F4E0620549054B1343B3
:1014B800CB60BFF34F8F00BF00BF00BF00BFFBE78B
:1014C80000ED00E00400FA0500B583B00190019B2F
:1014D800013BB3F1807F01D301230FE0094A019B4F
:1014E800013B53600F214FF0FF30FFF72BFF054BF7
:1014F80000229A60034B07221A600023184603B0A3
:101508005DF804FB10E000E000B583B0019001989D
:10151800FFF760FE00BF03B05DF804FB00B587B0BD
:101528000346029101928DF80F3000230593FFF7CF
:1015380071FE0590019A02990598FFF74FFF024640
:101548009DF90F3011461846FFF7FCFE00BF07B0A3
:101558005DF804FB00B583B003468DF807309DF9AC
:1015680007301846FFF760FE00BF03B05DF804FBC4
:1015780000B583B003468DF807309DF9073018464B
:10158800FFF768FE00BF03B05DF804FB08B5FFF77E
:1015980085FF00BF08BD00B583B001900198FFF733
:1015A80093FF0346184603B05DF804FBBFF35F8F53
:1015B80000BF054B5B6A044A23F480335362034B34
:1015C80000225A6000BF704700ED00E090ED00E097
:1015D80082B00190094A019B43F001035360084B14
:1015E8005B6A074A43F480335362BFF34F8F00BFEF
:1015F800BFF36F8F00BF00BF02B0704790ED00E0EF
:1016080000ED00E082B00190019B5A781C4B9A6073
:10161800019B1B78002B29D0194A019B5B68D3607A
:10162800019B1B7B1A07019BDB7A1B061A43019B54
:101638009B7ADB041A43019B5B7B9B041A43019B47
:101648009B7B5B041A43019BDB7B1B041A43019BB6
:101658005B7A1B021A43019B1B7A5B001343019AB6
:1016680012781146064A0B43136105E0044B002229
:10167800DA60034B00221A6100BF02B0704700BF56
:1016880090ED00E008B5FFF7C5FD0346184608BD14
:1016980000B585B002910192009303468DF80F3092
:1016A8009DF90F301846FFF775FE009B019A0299C5
:1016B800FFF7C2FE00BF05B05DF804FB00B583B0BC
:1016C80003468DF807309DF907301846FFF7F2FDFD
:1016D80000BF03B05DF804FB00B583B003468DF886
:1016E80007309DF907301846FFF7CCFD034618462A
:1016F80003B05DF804FB00B583B003468DF80730EE
:101708009DF907301846FFF7EDFD00BF03B05DF8FF
:1017180004FB00B583B003468DF807309DF9073008
:101728001846FFF7F7FD0346184603B05DF804FBBB
:1017380082B00190019B042B06D1084B1B68074A15
:1017480043F00403136005E0044B1B68034A23F0CD
:101758000403136000BF02B0704700BF10E000E050
:1017680008B500F002F800BF08BD00BF704700BF11
:1017780000B583B00190019B1B685868019B9B6A68
:10178800591C019A9162C2B21A70019BDB8D9BB2FF
:10179800013B9AB2019BDA85019BDB8D9BB2002B42
:1017A8000AD1019B1B68DA68019B1B6822F02002A2
:1017B800DA60019801F051F900BF03B05DF804FB4D
:1017C80000B585B00190019B1B681B680393039BC0
:1017D80003F02003002B03D00198FFF7C9FF19E09D
:1017E800039B03F01003002B03D0019B1B685B686D
:1017F80010E0039B03F00803002B03D0019B1B6838
:101808005B6807E0039B03F00103002B02D0019BF8
:101818001B685B6800BF05B05DF804FB84B00190ED
:10182800019B5B680393019B1B68264A934204D083
:10183800019B1B68244A934208D1244BD968019B19
:101848001B68039AB1FBF2F29A6007E01F4B5968D4
:10185800019B1B68039AB1FBF2F29A60019B1B681B
:1018680000229A61019B1B685B69019A126823F444
:101878007F6323F00F035361019B1B681B6923F4EB
:10188800FE4323F07F03019AD168019A12680B4343
:101898001361019B1B68DB6823F43F4323F0FF03BC
:1018A800019A92681A43019B5B691343019A126873
:1018B80043F4005343F00C03D3600023184604B0EC
:1018C800704700BF0010014000140140E4000020F0
:1018D80084B0039002911346ADF8063000231846F1
:1018E80004B0704784B0039002911346ADF80630F7
:1018F80014E000BF039B1B681B6803F02003002B48
:10190800F8D0039B1B685968029B5A1C0292CAB202
:101918001A70BDF80630013BADF80630BDF8063048
:10192800002BE6D10023184604B0704784B003901A
:1019380002911346ADF80630039B1B68DA68039BD7
:101948001B6842F02002DA60039B029A9A62039BAA
:10195800BDF806209A85039BBDF80620DA8500238A
:10196800184604B0704782B001900B468DF80330DA
:1019780000BF02B0704782B00190009100BF02B072
:1019880070470EB42DE9F04398B0019020AB0B934B
:101998002CE11F9B1B78252B40F01F811F9B0133D7
:1019A8001F931F9B1B78252B3CD0252BC0F20E8143
:1019B800782B00F30B81632BC0F20881633B152B56
:1019C80000F2048101A252F823F000BF371A000880
:1019D800651A0008D51B0008DF1A0008D51B000887
:1019E800D51B0008D51B0008D51B0008D51B00080F
:1019F800D51B0008D51B0008D51B0008D51B0008FF
:101A0800D51B0008D51B0008D51B0008511A000873
:101A1800D51B00089B1A0008D51B0008D51B000819
:101A2800BD1A000825210198FFF79DFFDBE00B9BFD
:101A38001A1D0B921B688DF833309DF83330194608
:101A48000198FFF790FFCEE00B9B1A1D0B921B68C5
:101A5800169316990198FFF78EFFC4E00B9B1A1D89
:101A68000B921B681793179B002B06DA2D21019800
:101A7800FFF779FF179B5B42179302AB0A2217996E
:101A88001846FFF7CDF802AB19460198FFF773FF28
:101A9800A9E00B9B1A1D0B921B68179302AB0A2235
:101AA80017991846FFF7BCF802AB19460198FFF7DB
:101AB80062FF98E00B9B1A1D0B921B68179302ABF1
:101AC800102217991846FFF7ABF802AB1946019890
:101AD800FFF751FF87E00B9B073323F0070303F160
:101AE80008020B92D3E90023CDE91423DDE91401A0
:101AF8004FF000024FF00003CA0F0023CDE9122374
:101B0800129B03F001031193DDE914239046C3F3FC
:101B18001309CDE91289DDE9120101F061F90246E4
:101B28000B46CDE90E234FF00002394BDDE90E01DB
:101B380001F0B6FA02460B46CDE90E234FF000023B
:101B4800344BDDE90E0100F0CBFF02460B46CDE930
:101B58000E23DDE914014FF000024FF000030A0DD7
:101B68000023C2F30A060027CDE91267DDE9122334
:101B78002949541843F1FF35CDE91245129B1846FF
:101B88009FED210BFFF7A8F951EC100BDDE90E23AF
:101B980001F05CF902460B461046194601F068FB55
:101BA80003460D93119B012B03D12D210198FFF7BB
:101BB800DAFE02AB05219DED0D0A1846FFF73CF948
:101BC80002AB19460198FFF7D6FE0CE01F9B1B7865
:101BD80019460198FFF7C7FE05E01F9B1B781946B9
:101BE8000198FFF7C0FE1F9B01331F931F9B1B78B3
:101BF800002B7FF4CEAE00BF00BF18B0BDE8F043A5
:101C080003B07047AFF30080000000000000004000
:101C1800000030430000F03F01FCFFFF00B583B037
:101C28000346ADF806300B4B5A69BDF80630134031
:101C3800002B0BD0074B5A69BDF8063005491340F5
:101C48004B61BDF80630184600F000FF00BF03B036
:101C58005DF804FB003C014088B00190009100232E
:101C6800059300230493002306930023079359E167
:101C78000122079B02FA03F30593009B1B68059A50
:101C880013400493049A059B9A4240F04881009BB4
:101C98005B68022B03D0009B5B68122B23D1079B48
:101CA800DA08019B083253F822300693079B03F0A9
:101CB80007039B000F2202FA03F3DB43069A134043
:101CC8000693009B1A69079B03F007039B0002FA1F
:101CD80003F3069A13430693079BDA08019B08321D
:101CE800069943F82210019B1B680693079B5B002B
:101CF800032202FA03F3DB43069A13400693009B80
:101D08005B6803F00302079B5B0002FA03F3069A81
:101D180013430693019B069A1A60009B5B68012B8C
:101D28000BD0009B5B68022B07D0009B5B68112BD4
:101D380003D0009B5B68122B30D1019B9B680693F4
:101D4800079B5B00032202FA03F3DB43069A134066
:101D58000693009BDA68079B5B0002FA03F3069A76
:101D680013430693019B069A9A60019B5B6806934E
:101D78000122079B02FA03F3DB43069A13400693FA
:101D8800009B5B681B0903F00102079B02FA03F33F
:101D9800069A13430693019B069A5A60019BDB68D7
:101DA8000693079B5B00032202FA03F3DB43069AC0
:101DB80013400693009B9A68079B5B0002FA03F3A3
:101DC800069A13430693019B069ADA60009B5B68A8
:101DD80003F08053002B00F0A28000230393554B9F
:101DE8005B6C544A43F480435364524B5B6C03F47A
:101DF80080430393039B504A079B9B08023352F886
:101E080023300693079B03F003039B000F2202FA7B
:101E180003F3DB43069A13400693019B474A934218
:101E280019D0019B464A934213D0019B454A9342DD
:101E38000DD0019B444A934207D0019B434A9342E9
:101E480001D1042308E0072306E0032304E002236A
:101E580002E0012300E00023079A02F00302920047
:101E68009340069A134306933349079B9B08023312
:101E7800069A41F82320364B1B680693049BDB43E4
:101E8800069A13400693009B5B6803F48033002B8B
:101E980003D0069A049B134306932D4A069B1360AE
:101EA8002B4B5B680693049BDB43069A134006930F
:101EB800009B5B6803F40033002B03D0069A049B55
:101EC80013430693224A069B5360214B9B68069353
:101ED800049BDB43069A13400693009B5B6803F45C
:101EE8008013002B03D0069A049B13430693184AC9
:101EF800069B9360164BDB680693049BDB43069AAC
:101F080013400693009B5B6803F40013002B03D077
:101F1800069A049B134306930D4A069BD360079BBE
:101F280001330793079B0F2B7FF6A2AE00BF00BFBC
:101F380008B07047003802400038014000000240F5
:101F48000004024000080240000C02400010024059
:101F5800003C014082B001900B46ADF8023000BF52
:101F6800184602B0704784B001900B46ADF80230B5
:101F7800019B1B69ADF80E30BDF80E20BDF802308C
:101F880013409BB2002B01D0012300E00023184628
:101F980004B0704782B001900B46ADF8023013468A
:101FA800ADF8003000BF02B0704782B001900B4618
:101FB800ADF802301346ADF80030BDF80030002B04
:101FC80007D0019B5A69BDF802301A43019B5A6138
:101FD80007E0019B5B69BDF80220D2431A40019BD0
:101FE8005A6100BF02B0704700B583B00190019BF1
:101FF8001B681A69019B1B6822F01F021A6101986D
:1020080000F030FD00BF03B05DF804FB82B0019022
:1020180000910023184602B0704782B001900091E9
:102028000023184602B0704782B00190019B1B68DC
:102038001A69019B1B6822F01F021A61019B1B6829
:102048001A68019B1B6802F47C421A60019B1B689A
:10205800019A52689A62019B1B68019AD268DA62F7
:102068000023184602B0704782B0019000BF02B04A
:10207800704782B0019000BF02B0704782B00190F3
:1020880000BF02B0704782B0019000BF02B0704735
:1020980082B00190019B1B681A69019B1B6822F0A2
:1020A8001F021A61019B1B684FF400425A64019B8E
:1020B8001B6880221A60019B1B68019A52689A6209
:1020C800019B1B68019AD268DA620023184602B0A5
:1020D800704784B00390029101920093029B042BF5
:1020E80002D8019B642B01D90023E9E0029B013B44
:1020F800032B47D801A252F823F000BF152100088E
:1021080033210008512100086F210008039B1B6838
:10211800DB6A0133019A03FB02F2039B1B686A49DD
:10212800A1FB021252095A632DE0039B1B68DB6A6C
:102138000133019A03FB02F2039B1B686249A1FB6E
:10214800021252099A631EE0039B1B68DB6A013383
:10215800019A03FB02F2039B1B685B49A1FB021275
:102168005209DA630FE0039B1B68DB6A0133019AAB
:1021780003FB02F2039B1B685349A1FB021252099D
:102188001A6400E000BF029B013B0293029B032BF1
:102198006ED801A252F823F0B1210008E32100080B
:1021A8001522000847220008039B1B689B69029AB6
:1021B800D20002F00802FF2101FA02F2D2431A40CB
:1021C800029BDB0003F00803682101FA03F31946B8
:1021D800039B1B680A439A614BE0039B1B689B693E
:1021E800029AD20002F00802FF2101FA02F2D24359
:1021F8001A40029BDB0003F00803682101FA03F38D
:102208001946039B1B680A439A6132E0039B1B68CB
:10221800DB69029AD20002F00802FF2101FA02F2F9
:10222800D2431A40029BDB0003F00803682101FA3D
:1022380003F31946039B1B680A43DA6119E0039B01
:102248001B68DB69029AD20002F00802FF2101FA3A
:1022580002F2D2431A40029BDB0003F00803682114
:1022680001FA03F31946039B1B680A43DA6100E08D
:1022780000BF009B002B14D0039B1B681B6A029AAB
:1022880092000F2101FA02F2D2431A40029B9B00EE
:10229800012101FA03F31946039B1B680A431A62DA
:1022A8000DE0039B1B681A6A029B9B000F2101FA31
:1022B80003F3DB431946039B1B680A401A62002399
:1022C800184604B0704700BF1F85EB5184B00390D7
:1022D80002910192029B042B02D8019B642B01D925
:1022E80000234DE0029B013B032B47D801A252F883
:1022F80023F000BF0D2300082B2300084923000802
:1023080067230008039B1B68DB6A0133019A03FB00
:1023180002F2039B1B681C49A1FB021252095A6373
:102328002DE0039B1B68DB6A0133019A03FB02F271
:10233800039B1B681449A1FB021252099A631EE011
:10234800039B1B68DB6A0133019A03FB02F2039BC0
:102358001B680D49A1FB02125209DA630FE0039BC7
:102368001B68DB6A0133019A03FB02F2039B1B68BB
:102378000549A1FB021252091A6400E000BF0023BC
:10238800184604B0704700BF1F85EB5182B001901A
:10239800019B1B689B68224A1360214B1B6803F052
:1023A8000203002B21D0019B1B6C002B1DD0019B2D
:1023B8005B6C012B02D9019B1B68DB68019B9A6B44
:1023C800019B5B6C581C0199486413441A78019B63
:1023D8001B68DA60019B1B6C5A1E019B1A64114B27
:1023E8001B6801330F4A136012E0019B1B68DB680E
:1023F800019B1B685A68019B1B6822F080025A6087
:10240800094B1B680133084A1360019B00221A65B7
:10241800064B1B680133054A136000BF02B07047C2
:102428000C01002004010020080100200001002008
:1024380086B00190002304931D4BDB680493019B35
:102448001B6B049AB2FBF3F303930023059326E076
:10245800059B0133012202FA03F31A46039B9342B8
:102468001AD8019B5A6B059BDB001A43019B1B681A
:1024780042F441721A60019B1B6804225A60019B56
:102488001B681A68019B1B6842F040021A60049A94
:10249800059B02FA03F307E0059B01330593059BAF
:1024A800072BD5D94FF0FF33184606B0704700BF49
:1024B800E400002084B0039002911346ADF8063082
:1024C800039B01221A65039B029A9A63BDF80630A2
:1024D800013B1A46039B1A64039B01225A64039B1F
:1024E8001B685A68039B1B6842F080025A60039B72
:1024F8009B6B1A78039B1B68DA6000BF039B1B6801
:102508009B6803F00303002BF8D0039B1B689B68B0
:1025180003F08003002BF1D1039B1B68DB680023C9
:10252800184604B0704782B001900B468DF803300E
:10253800019B1B689DF80320DA6000BF019B1B68A4
:102548009B6803F00303002BF8D0019B1B689B6872
:1025580003F08003002BF1D1019B1B68DB6800238B
:10256800184602B0704700BF00B583B00190019BC8
:102578009BB21A4620210348FFF717FD00BF03B09E
:102588005DF804FB0000024000B583B00190019B98
:102598009BB21A4610210348FFF707FD00BF03B09E
:1025A8005DF804FB0004024000B583B00190019B74
:1025B8009BB21A4680210348FFF7F7FC00BF03B01F
:1025C8005DF804FB0008024000B583B00190019B50
:1025D8009BB21A464FF400710348FFF7E6FC00BFB0
:1025E80003B05DF804FB00BF0000024008B50121FC
:1025F8000248FFF7B8FC0346184608BD0008024029
:1026080008B502210248FFF7AEFC0346184608BD8C
:102618000008024008B520210248FFF7A4FC034641
:10262800184608BD0004024008B510210248FFF70B
:102638009AFC0346184608BD0000024008B501216F
:102648000248FFF790FC0346184608BD0004024004
:1026580000B583B000230193FFF7C8FF0346002BA2
:1026680003D0019B43F001030193FFF7C9FF034621
:10267800002B03D0019B43F002030193FFF7D4FF23
:102688000346002B03D0019B43F004030193FFF79B
:10269800D5FF0346002B03D0019B43F008030193A9
:1026A800FFF7B8FF0346002B03D0019B43F010034C
:1026B8000193019B184603B05DF804FB00BF184660
:1026C800704700BF1846704700BF1846704700BFE4
:1026D8001846704700BF1846704700BF82B00346CF
:1026E8008DF807309DF8073003F01F0205499DF962
:1026F80007305B09012000FA02F241F8232000BFED
:1027080002B0704700E100E082B0034600918DF806
:1027180007309DF90730002B0CDA009BDAB20C4920
:102728009DF8073003F00F03043B1201D2B20B44AB
:102738001A7609E0009BDAB206499DF907301201C2
:10274800D2B20B4483F8002300BF02B0704700BF29
:1027580000ED00E000E100E000B585B00023039340
:102768001B4B1B6B1A4A43F001031363184B1B6B7B
:1027780003F001030393039B00230293144B1B6B89
:10278800134A43F002031363114B1B6B03F002035C
:102798000293029B002301930D4B1B6B0C4A43F0E1
:1027A800040313630A4B1B6B03F004030193019B9F
:1027B80000F010F800F046F800F088F800F09AF8F9
:1027C80000F0ACF800F0ACF800BF05B05DF804FB11
:1027D8000038024000B587B000230093154B1B6BEF
:1027E800144A43F002031363124B1B6B03F00203FA
:1027F8000093009B1023019301230293002303936A
:102808000123049301AB19460B48FFF725FA8023EF
:10281800019301AB19460948FFF71EFA4FF40073FC
:10282800019301AB19460648FFF716FA00BF07B037
:102838005DF804FB00380240000402400008024032
:102848000000024000B587B0002300931B4B1B6BB0
:102858001A4A43F004031363184B1B6B03F0040379
:102868000093009B01230193002302930023039309
:1028780001AB19461248FFF7EFF90223019301ABA8
:1028880019460F48FFF7E8F91023019301AB1946E1
:102898000C48FFF7E1F90123019301AB19460A48F7
:1028A800FFF7DAF92023019301AB19460648FFF731
:1028B800D3F900BF07B05DF804FB00BF0038024041
:1028C80000080240000002400004024082B00023D9
:1028D8000193074B1B6C064A43F001031364044B36
:1028E8001B6C03F001030193019B00BF02B070470A
:1028F8000038024082B000230193074B1B6C064A44
:1029080043F008031364044B1B6C03F008030193A2
:10291800019B00BF02B070470038024000BF7047FB
:1029280000B587B04FF4A0730193012302930023ED
:1029380003930123049301AB19461C48FFF78CF954
:10294800402301930123029300230393012304935B
:1029580001AB19461648FFF77FF900230093154B82
:102968005B6C144A43F480535364124B5B6C03F45E
:1029780080530093009BA02301930223029300231A
:102988000393032304930523059301AB19460748D2
:10299800FFF762F904212320FFF7B6FE2320FFF793
:1029A8009DFE00BF07B05DF804FB00BF00000240B9
:1029B800000402400038024008B5FEF71DFBFEF790
:1029C800CFFE00BF08BD08B50248FFF70DFB00BFEA
:1029D80008BD00BF8803002008B50248FEF7F0FED6
:1029E80000BF08BD9C03002008B50248FDF7ACFEF7
:1029F80000BF08BDCC03002008B50248FDF792FFD0
:102A080000BF08BDCC03002008B54FF40050FFF705
:102A180005F900BF08BD08B51020FFF7FFF800BF93
:102A280008BD08B50120FFF7F9F800BF08BD08B5D3
:102A38000220FFF7F3F800BF08BD08B50248FFF70A
:102A4800A5FC00BF08BD00BF2003002082B00346DC
:102A5800ADF8063000BF02B0704782B0019000BFE9
:102A680002B0704782B0019000BF02B0704708B54D
:102A7800FEF77CFAFFF770FE154B1B68002B02D09F
:102A8800012B12D023E0FFF7C5FD0346012B02D12D
:102A98000F4B01221A600020FFF776FD0020FFF798
:102AA80083FD0020FFF790FD11E0FFF7C7FD034607
:102AB800012B02D1064B00221A600120FFF764FDAA
:102AC8000120FFF771FD0120FFF77EFD00BFD3E76E
:102AD8001004002081F0004102E000BF83F00043B1
:102AE80030B54FEA41044FEA430594EA050F08BFA1
:102AF80090EA020F1FBF54EA000C55EA020C7FEA65
:102B0800645C7FEA655C00F0E2804FEA5454D4EBE1
:102B18005555B8BF6D420CDD2C4480EA020281EAAB
:102B2800030382EA000083EA010180EA020281EAE3
:102B38000303362D88BF30BD11F0004F4FEA013135
:102B48004FF4801C4CEA113102D0404261EB410144
:102B580013F0004F4FEA03334CEA133302D05242CA
:102B680063EB430394EA050F00F0A780A4F1010486
:102B7800D5F1200E0DDB02FA0EFC22FA05F28018C0
:102B880041F1000103FA0EF2801843FA05F35941A6
:102B98000EE0A5F120050EF1200E012A03FA0EFC25
:102BA80028BF4CF0020C43FA05F3C01851EBE3714F
:102BB80001F0004507D54FF0000EDCF1000C7EEB6C
:102BC80000006EEB0101B1F5801F1BD3B1F5001FAA
:102BD8000CD349085FEA30004FEA3C0C04F10104C9
:102BE8004FEA445212F5800F80F09A80BCF1004FF2
:102BF80008BF5FEA500C50F1000041EB045141EA74
:102C0800050130BD5FEA4C0C404141EB0101013C3C
:102C180028BFB1F5801FE9D291F0000F04BF01462B
:102C28000020B1FA81F308BF2033A3F10B03B3F1FD
:102C380020020CDA0C3208DD02F1140CC2F10C028D
:102C480001FA0CF021FA02F10CE002F11402D8BFEB
:102C5800C2F1200C01FA02F120FA0CFCDCBF41EAB7
:102C68000C019040E41AA2BF01EB0451294330BD86
:102C78006FEA04041F3C1CDA0C340EDC04F1140463
:102C8800C4F1200220FA04F001FA02F340EA03003A
:102C980021FA04F345EA030130BDC4F10C04C4F180
:102CA800200220FA02F001FA04F340EA0300294660
:102CB80030BD21FA04F0294630BD94F0000F83F4AA
:102CC800801306BF81F480110134013D4EE77FEA8D
:102CD800645C18BF7FEA655C29D094EA050F08BFD9
:102CE80090EA020F05D054EA000C04BF19461046BA
:102CF80030BD91EA030F1EBF0021002030BD5FEAFE
:102D0800545C05D14000494128BF41F0004130BD25
:102D180014F580043CBF01F5801130BD01F0004579
:102D280045F0FE4141F470014FF0000030BD7FEAEC
:102D3800645C1ABF194610467FEA655C1CBF0B46E7
:102D4800024650EA013406BF52EA033591EA030FFE
:102D580041F4002130BD00BF90F0000F04BF0021F6
:102D6800704730B54FF4806404F132044FF0000529
:102D78004FF0000150E700BF90F0000F04BF0021A2
:102D8800704730B54FF4806404F1320410F0004508
:102D980048BF40424FF000013EE700BF42004FEA03
:102DA800E2014FEA31014FEA02701FBF12F07F4380
:102DB80093F07F4F81F06051704732F07F4208BF37
:102DC800704793F07F4F04BF41F40021704730B53E
:102DD8004FF4607401F0004521F000411CE700BF8A
:102DE80050EA010208BF704730B54FF000050AE00D
:102DF80050EA010208BF704730B511F0004502D50E
:102E0800404261EB41014FF4806404F132045FEA0F
:102E1800915C3FF4D8AE4FF003025FEADC0C18BFB8
:102E280003325FEADC0C18BF033202EBDC02C2F1AA
:102E3800200300FA03FC20FA02F001FA03FE40EA3C
:102E48000E0021FA02F11444BDE600BF70B54FF040
:102E5800FF0C4CF4E06C1CEA11541DBF1CEA13551E
:102E680094EA0C0F95EA0C0F00F0DEF82C4481EA86
:102E7800030621EA4C5123EA4C5350EA013518BFA6
:102E880052EA033541F4801143F4801338D0A0FB93
:102E980002CE4FF00005E1FB02E506F00042E0FB40
:102EA80003E54FF00006E1FB03569CF0000F18BF46
:102EB8004EF0010EA4F1FF04B6F5007F64F54074EE
:102EC80004D25FEA4E0E6D4146EB060642EAC62181
:102ED80041EA55514FEAC52040EA5E504FEACE2EEE
:102EE800B4F1FD0C88BFBCF5E06F1ED8BEF1004FF1
:102EF80008BF5FEA500E50F1000041EB045170BD6D
:102F080006F0004646EA010140EA020081EA0301B0
:102F1800B4EB5C04C2BFD4EB0C0541EA045170BDAC
:102F280041F480114FF0000E013C00F3AB8014F126
:102F3800360FDEBF002001F0004170BDC4F100046F
:102F4800203C35DA0C341BDC04F11404C4F12005F0
:102F580000FA05F320FA04F001FA05F240EA02004B
:102F680001F0004221F0004110EBD37021FA04F681
:102F780042EB06015EEA430E08BF20EAD37070BD3B
:102F8800C4F10C04C4F1200500FA04F320FA05F09A
:102F980001FA04F240EA020001F0004110EBD3709C
:102FA80041F100015EEA430E08BF20EAD37070BD0C
:102FB800C4F1200500FA05F24EEA020E20FA04F3E5
:102FC80001FA05F243EA020321FA04F001F0004194
:102FD80021FA04F220EA020000EBD3705EEA430E05
:102FE80008BF20EAD37070BD94F0000F0FD101F034
:102FF8000046400041EB010111F4801F08BF013C6D
:10300800F7D041EA060195F0000F18BF704703F0AA
:103018000046520043EB030313F4801F08BF013D31
:10302800F7D043EA0603704794EA0C0F0CEA1355ED
:1030380018BF95EA0C0F0CD050EA410618BF52EAA7
:103048004306D1D181EA030101F000414FF00000AD
:1030580070BD50EA410606BF1046194652EA4306BB
:1030680019D094EA0C0F02D150EA013613D195EA2F
:103078000C0F05D152EA03361CBF104619460AD177
:1030880081EA030101F0004141F0FE4141F4700181
:103098004FF0000070BD41F0FE4141F4780170BD71
:1030A80070B54FF0FF0C4CF4E06C1CEA11541DBFD6
:1030B8001CEA135594EA0C0F95EA0C0F00F0A7F8D8
:1030C800A4EB050481EA030E52EA03354FEA013105
:1030D80000F088804FEA03334FF0805545EA131318
:1030E80043EA12634FEA022245EA111545EA1065E0
:1030F8004FEA00260EF000419D4208BF964244F177
:10310800FD0404F5407402D25B084FEA3202B61A95
:1031180065EB03055B084FEA32024FF480104FF469
:10312800002CB6EB020E75EB030E22BFB61A7546DD
:1031380040EA0C005B084FEA3202B6EB020E75EB70
:10314800030E22BFB61A754640EA5C005B084FEAD8
:103158003202B6EB020E75EB030E22BFB61A7546A5
:1031680040EA9C005B084FEA3202B6EB020E75EBB0
:10317800030E22BFB61A754640EADC0055EA060E71
:1031880018D04FEA051545EA16754FEA06164FEAB4
:10319800C30343EA52734FEAC2025FEA1C1CC0D160
:1031A80011F4801F0BD141EA00014FF000004FF0ED
:1031B800004CB6E711F4801F04BF01430020B4F1AE
:1031C800FD0C88BFBCF5E06F3FF6AFAEB5EB030C66
:1031D80004BFB6EB020C5FEA500C50F1000041EB63
:1031E800045170BD0EF0004E4EEA113114EB5C0430
:1031F800C2BFD4EB0C0541EA045170BD41F4801103
:103208004FF0000E013C90E645EA060E8DE60CEA0A
:10321800135594EA0C0F08BF95EA0C0F3FF43BAF27
:1032280094EA0C0F0AD150EA01347FF434AF95EADE
:103238000C0F7FF425AF104619462CE795EA0C0FC2
:1032480006D152EA03353FF4FDAE1046194622E78F
:1032580050EA410618BF52EA43067FF4C5AE50EA69
:1032680041047FF40DAF52EA43057FF4EBAE12E759
:103278004FEA4102B2F1E04324BFB3F5001CDCF190
:10328800FE5C0DD901F0004C4FEAC0024CEA5070C8
:10329800B2F1004F40EB830008BF20F001007047F7
:1032A80011F0804F21D113F13872BCBF01F00040FA
:1032B800704741F480114FEA5252C2F11802C2F12C
:1032C800200C10FA0CF320FA02F018BF40F00100AD
:1032D8004FEAC1234FEAD32303FA0CFC40EA0C005F
:1032E80023FA02F34FEA4303CCE77FEA625307D19C
:1032F80050EA01331EBF4FF0FE4040F440007047D3
:1033080001F0004040F0FE4040F40000704700BF6C
:103318000D480E490E4A914204D050F8044B41F82A
:10332800044BF8E70B480C494FF00002884202D0E2
:1033380040F8042BFAE7FCF75BFF00F011F8FFF701
:1033480096FBFFF7FEBF0000603C0008000000206D
:10335800C8000020C800002014040020FEE7000078
:1033680070B50D4D0D4C641BA4100026A64209D162
:103378000B4D0C4C00F018F8641BA4100026A64254
:1033880005D170BD55F8043B98470136EEE755F86E
:10339800043B98470136F2E7583C0008583C0008BF
:1033A800583C00085C3C0008F8B500BFF8BC08BCF5
:1033B8009E467047F8B500BFF8BC08BC9E467047EB
:1033C8003E410C4111412741364103410641154117
:1033D8000F410E41264113412941024119410A4139
:1033E8000B41000000E000E000ED00E010E000E02C
:1033F80000E100E0000000E0001000E0000004E050
:10340800F0ED00E090ED00E030EF00E0000000405B
:103418000004004000080040000C00400028004064
:10342800002C0040003000400034004000380040CC
:10343800003C004000400040004400400054004070
:1034480000580040005C004000700040000001404F
:1034580000100140001401400020014000230140F9
:10346800002C014000300140003401400038014088
:10347800003C014000400140004401400048014038
:1034880000500140000002400004024000080240D1
:10349800000C024000100240001C024000300240B4
:1034A80000380240003C02400060024010600240C8
:1034B800286002404060024058600240706002404C
:1034C80088600240A0600240B86002400064024088
:1034D800106402402864024040640240586402407C
:1034E8007064024088640240A0640240B8640240EC
:1034F800002004E000000050000000000000000070
:10350800010203040607080913090902050000005F
:1035180000000000000000000000000000000002A1
:1035280000009E00000000000000000000000000F5
:103538000000040000060000000600000000000073
:1035480000000000000600005000F8005000F800DD
:1035580050000000000000000600008C009200FEF1
:1035680001A2004000000000000000071E009200B9
:103578005E002000F8009400F20000000000070040
:103588000064009A00AA00CC0060008000000000DF
:10359800000200000600000000000000000000001B
:1035A800000000000300007C008301000000000010
:1035B8000000000000000003000083017C00000000
:1035C8000000000000000000000004000030007847
:1035D800003000000000000000000000000510009E
:1035E80010007C0010001000000000000000000027
:1035F800020001C000000000000000000000000000
:10360800000000040000100010001000000000007E
:103618000000000000000200008000000000000020
:10362800000000000000000000040001E0001C0091
:103638000300000000000000000000000500007CFE
:1036480000820082007C00000000000000000005ED
:10365800000008000400FE00000000000000000058
:1036680000000500008400C200A2009C00000000C9
:1036780000000000000500008200920092006C002B
:10368800000000000000000005000038002C0022A7
:1036980000FE0000000000000000000500009E0081
:1036A8009200920062000000000000000000050087
:1036B800007C0092009200740000000000000000EE
:1036C800000500000200C20032000E0000000000E9
:1036D800000000000500006C00920092006C0000E1
:1036E800000000000000000500009C00920092000D
:1036F8007C000000000000000000020000880000BC
:1037080000000000000000000000000000020001AE
:10371800C8000000000000000000000000000000D9
:1037280005100010002800280044000000000000D8
:1037380000000005000028002800280028000000DC
:1037480000000000000005000044002800280010C8
:103758000000000000000000000500000200B200A8
:1037680012000C000000000000000000090000F832
:1037780000840172014A014A017A0142003C0006B4
:103788000000F800240022002400F80000000000D7
:103798000000060000FE009200920092006C0000FB
:1037A80000000000000600007C0082008200820009
:1037B8004400000000000000060000FE00820082B5
:1037C80000C6007C00000000000000050000FE00AC
:1037D8009200920092000000000000000000050026
:1037E80000FE00120012001200000000000000009D
:1037F800000600007C00C60082009200F60000006F
:1038080000000000060000FE00100010001000FE7E
:1038180000000000000000020000FE0000000000A0
:10382800000000000000000000000400008000808C
:10383800007E0000000000000000000000050000FD
:10384800FE0010002C00C200000000000000000074
:10385800050000FE008000800080000000000000DD
:10386800000000080000FE0006001800E000180034
:103878000600FE000000060000FE000600180060BA
:1038880000FE000000000000000600007C0082002E
:10389800820082007C00000000000000050000FE9D
:1038A80000120012000C00000000000000000007D9
:1038B80000007C0082008200C200FC0000010000C1
:1038C8000000050000FE0012001200EC00000000DD
:1038D8000000000000050000CC0092009200660085
:1038E800000000000000000006000002000200FEC8
:1038F80000020002000000000000000600007E0038
:103908008000800080007E000000000000000700AA
:103918000006003C00E000E0001C0006000000007B
:10392800000600001E00E0003E00E0001E0000004F
:10393800000000000600008200640038006C00826D
:103948000000000000000006000002000C00F0006B
:103958000C0002000000000000000600008200E2E7
:103968000092008E008200000000000000030000AA
:10397800FF0101010000000000000000000000003D
:103988000401000E0070008001000000000000002B
:10399800000000020101FF0100000000000000001B
:1039A80000000000000004000018000C00180000CF
:1039B80000000000000000000006000100010001F6
:1039C80000010001000100000000000003000001E8
:1039D80000020000000000000000000000000005D8
:1039E8000000E800A800A800F8000000000000009F
:1039F8000000050000FE008800880070000000003C
:103A080000000000000500007000880088008800A1
:103A18000000000000000000050000700088008819
:103A280000FE00000000000000000005000070001B
:103A3800A800A800B0000000000000000000040872
:103A480000FE000A00020000000000000000000064
:103A580000050000300048014801F801000000009E
:103A680000000000050000FE0008000800F8000043
:103A780000000000000000020000FA000000000042
:103A880000000000000000000000020001FA010030
:103A98000000000000000000000000000005000019
:103AA800FE00200050008800000000000000000018
:103AB800020000FE000000000000000000000000FE
:103AC800000000060000F8000800F8000800F800F0
:103AD800000000000000050000F80008000800F8D9
:103AE80000000000000000000005000070008800D1
:103AF800880070000000000000000000050000F8C9
:103B080001480048003000000000000000000005E7
:103B18000000300048004800F801000000000000E4
:103B28000000040000F80008000800000000000081
:103B380000000000000400009800A800E800000051
:103B480000000000000000000400000800FC0088DD
:103B580000000000000000000000000500007800E0
:103B680080008000F8000000000000000000040051
:103B7800003800C00038000000000000000000000D
:103B8800000600007800C0003800C000780000007F
:103B98000000000005000088007000700088000028
:103BA800000000000000000500003800400140014E
:103BB800F8000000000000000000050000C800E850
:103BC80000B8008800000000000000000004100099
:103BD8003800EF01010100000000000000000000B3
:103BE8000300000000FF01000000000000000000CA
:103BF800000000040101C7013800100000000000A7
:103C0800000000000000050C0004000C0008000C77
:103C180000000000000000000003FE010201FE0198
:103C28000000000000000000000000003E410C41C0
:103C38001141274136410341064115410F410E41CB
:103C4800264113412941024119410A410B41000013
:043C5800BD010008A2
:043C5C0099010008C2
:103C60000024F4000100000000000000000000003B
:103C70000000000000000000000000000000000044
:103C800002016000080202000005040103000000B8
:103C9000006CDC02001BB70000366E01020150010F
:103CA00008040700000400020200000000BD010536
:103CB00080DE800200BD01050201C0000802020092
:103CC000000400030300000000D8B805006CDC020B
:103CD00000D8B8050000000000000000000000004F
:103CE00000000000000000000000000000000000D4
:103CF0000200500108040700000400020200000056
:103D000000BD010580DE800200BD01053031323387
:103D100034353637383941424344454600000000C7
:083D200010000000010000008A
:0400000508003319A3
:00000001FF
